:100000000C942A000C947E0B0C9447000C9447002F
:100010000C9447000C9447000C9447000C94470044
:100020000C9447000C9447000C94750A0C944700FC
:100030000C9447000C9447000C9447000C94470024
:100040000C9447000C9447000C9447000C94470014
:100050000C94470011241FBECFE5D4E0DEBFCDBF16
:1000600011E0A0E6B0E0E0E9F6E402C005900D92F0
:10007000AA39B107D9F711E0AAE9B1E001C01D9290
:10008000AD3AB107E1F70E946B220C9446230C9421
:100090000000EF92FF920F931F937B018C0120E0F1
:1000A00030E040E05FE40E94F50388238CF0C80153
:1000B000B70120E030E040E05FE40E94C1010E940F
:1000C000B3049B01AC01205030404040504806C072
:1000D000C801B7010E94B3049B01AC01B901CA0178
:1000E0001F910F91FF90EF900895A0E0B0E0EBE733
:1000F000F0E00C940F23DC012B01FA019C9192306B
:1001000008F439C1EB018881823008F433C194309E
:1001100069F4843009F02FC111969C91119789815F
:10012000981709F428C1A2E8B0E025C1843009F489
:1001300021C18230A9F4923009F01DC19A01AD01AC
:1001400088E0EA010990AE01E90109929E0181501F
:10015000C1F7E201898111969C918923818308C1AD
:10016000923009F407C112962D903C901397EB0141
:100170008A819B811496AD90BD90CD90DC901797AD
:10018000EC80FD800E811F819101281B390BB90184
:1001900037FF04C066277727621B730B6032710537
:1001A0000CF061C0121613066CF537014801062EDB
:1001B00004C096948794779467940A94D2F721E0C8
:1001C00030E040E050E004C0220F331F441F551FB1
:1001D0006A95D2F721503040404050402E213F21B7
:1001E00040235123211531054105510521F021E01E
:1001F00030E040E050E079018A01E628F72808293C
:1002000019293CC0232BD1F1260E371E350146019A
:10021000062E04C096948794779467940A94D2F734
:1002200021E030E040E050E004C0220F331F441FC3
:10023000551F6A95D2F721503040404050402A2146
:100240003B214C215D21211531054105510521F04E
:1002500021E030E040E050E059016A01A628B728CB
:10026000C828D9280BC0821593052CF01C01AA249C
:10027000BB24650103C0EE24FF24870111969C91E5
:10028000D20111968C91981709F445C0992339F041
:10029000A80197012A193B094C095D0906C0A6016E
:1002A00095012E193F09400B510B57FD08C01182D3
:1002B0003382228224833583468357831DC081E0A5
:1002C00081833382228288279927DC01821B930B4A
:1002D000A40BB50B84839583A683B7830DC0220F2F
:1002E000331F441F551F24833583468357838281E0
:1002F000938101979383828324813581468157813D
:10030000DA01C9010197A109B1098F5F9F4FAF4F72
:10031000BF4328F30BC0918333822282EA0CFB1C7B
:100320000C1D1D1DE482F5820683178383E0808304
:10033000248135814681578157FF1AC0C901AA27F8
:1003400097FDA095BA2F81709070A070B0705695EF
:10035000479537952795822B932BA42BB52B848318
:100360009583A683B7838281938101969383828349
:10037000DF0101C0D201CD01CDB7DEB7E2E10C94BF
:100380002B23A0E2B0E0E7ECF1E00C941B2369839F
:100390007A838B839C832D833E834F835887E9E048
:1003A000EE2EF12CEC0EFD1ECE010196B7010E943F
:1003B000A4068E010F5E1F4FCE010596B8010E9464
:1003C000A4068A8991E089278A8BC701B801AE010A
:1003D000475E5F4F0E9475000E94CF05A096E6E041
:1003E0000C943723A0E2B0E0E8EFF1E00C941B237B
:1003F00069837A838B839C832D833E834F835887C5
:10040000F9E0EF2EF12CEC0EFD1ECE010196B701A6
:100410000E94A4068E010F5E1F4FCE010596B80103
:100420000E94A406C701B801AE01475E5F4F0E945B
:1004300075000E94CF05A096E6E00C943723A0E259
:10044000B0E0E5E2F2E00C940F2369837A838B83BA
:100450009C832D833E834F835887CE010196BE0136
:10046000675F7F4F0E94A406CE010596BE016F5EB6
:100470007F4F0E94A4069985923088F08989823046
:10048000C8F0943019F4823051F404C0843029F457
:10049000923081F482E890E0C6C0923049F420E0C6
:1004A0009A858A89981321E02A87CE010996BBC0D4
:1004B000823049F420E09A858A89981321E02A8BBA
:1004C000CE014196B0C02D843E844F8458886D88FB
:1004D0007E888F88988CEE24FF248701AA24BB2471
:1004E000650140E050E060E070E0E0E0F0E0C10174
:1004F00081709070892BE9F0E60CF71C081D191D1E
:100500009A01AB012A0D3B1D4C1D5D1D80E090E062
:10051000A0E0B0E0E614F7040805190520F481E036
:1005200090E0A0E0B0E0BA01A901480F591F6A1F8E
:100530007B1FAA0CBB1CCC1CDD1C97FE08C081E0F5
:1005400090E0A0E0B0E0A82AB92ACA2ADB2A3196B6
:10055000E032F10549F0660C771C881C991C569412
:10056000479437942794C3CFFA85EA892B893C892D
:100570008B859C85280F391F2E5F3F4F17C0CA01FE
:1005800081709070892B61F016950795F794E79428
:1005900080E090E0A0E0B0E8E82AF92A0A2B1B2BC3
:1005A00076956795579547952F5F3F4F77FDE7CF36
:1005B0000CC0440F551F661F771F17FD4160EE0CDE
:1005C000FF1C001F111F21503040403090E05907A0
:1005D00090E0690790E4790760F32B8F3C8FDB0193
:1005E000CA018F779070A070B07080349105A1051A
:1005F000B10561F447FD0AC0E114F10401051105DC
:1006000029F0405C5F4F6F4F7F4F40781A8EFE1786
:1006100011F081E08A8F4D8F5E8F6F8F78A383E01A
:10062000898FCE0149960E94CF05A096E2E10C94F5
:100630002B23A8E1B0E0EFE1F3E00C9417236983EA
:100640007A838B839C832D833E834F835887B9E0C5
:10065000EB2EF12CEC0EFD1ECE010196B7010E948F
:10066000A4068E010F5E1F4FCE010596B8010E94B1
:10067000A4062985223008F47EC03989323010F46E
:10068000B8017CC08A859A8989278A87243011F02D
:10069000223031F4231709F06EC062E870E06EC0BA
:1006A000343039F41D861E861F86188A1C861B86E8
:1006B00004C0323021F484E08987B7015FC02B8504
:1006C0003C858B899C89281B390B3C872B87ED84C3
:1006D000FE840F851889AD88BE88CF88D88CEA142F
:1006E000FB040C051D0540F4EE0CFF1C001F111F40
:1006F000215030403C872B8720E030E040E050E044
:1007000080E090E0A0E0B0E460E070E0EA14FB0478
:100710000C051D0540F0282B392B4A2B5B2BEA18C2
:10072000FB080C091D09B695A79597958795EE0CC2
:10073000FF1C001F111F6F5F7F4F6F31710531F775
:10074000DA01C9018F779070A070B0708034910584
:10075000A105B10561F427FD0AC0E114F10401050A
:10076000110529F0205C3F4F4F4F5F4F20782D87B8
:100770003E874F87588BBE01675F7F4FCB010E943A
:10078000CF056896EAE00C943323A8E1B0E0EBECE7
:10079000F3E00C941B2369837A838B839C832D83E2
:1007A0003E834F83588789E0E82EF12CEC0EFD1E26
:1007B000CE010196B7010E94A4068E010F5E1F4F65
:1007C000CE010596B8010E94A4068985823040F0CA
:1007D0008989823028F0C701B8010E941C0701C036
:1007E0008FEF6896E6E00C943723A8E1B0E0EBEFDA
:1007F000F3E00C941B2369837A838B839C832D8382
:100800003E834F83588789E0E82EF12CEC0EFD1EC5
:10081000CE010196B7010E94A4068E010F5E1F4F04
:10082000CE010596B8010E94A4068985823040F069
:100830008989823028F0C701B8010E941C0701C0D5
:100840008FEF6896E6E00C943723A8E1B0E0EBE286
:10085000F4E00C941B2369837A838B839C832D8320
:100860003E834F83588789E0E82EF12CEC0EFD1E65
:10087000CE010196B7010E94A4068E010F5E1F4FA4
:10088000CE010596B8010E94A4068985823040F009
:100890008989823028F0C701B8010E941C0701C075
:1008A00081E06896E6E00C943723A8E0B0E0EBE541
:1008B000F4E00C9418239B01AC0183E08983DA01F6
:1008C000C9018827B7FD83959927AA27BB27B82E8A
:1008D000211531054105510519F482E089833AC09B
:1008E0008823A9F0203080E0380780E0480780E8BE
:1008F000580729F460E070E080E09FEC30C0EE24FF
:10090000FF248701E21AF30A040B150B02C07901D8
:100910008A018EE1C82ED12CDC82CB82ED82FE8250
:100920000F831887C801B7010E9480050197181628
:10093000190684F4082E04C0EE0CFF1C001F111FC2
:100940000A94D2F7ED82FE820F831887C81AD90A5B
:10095000DC82CB82BA82CE0101960E94CF05289616
:10096000E9E00C943423ACE0B0E0E9EBF4E00C9463
:100970001F2369837A838B839C83CE010196BE01FA
:100980006B5F7F4F0E94A4068D81823061F18230BF
:1009900050F1843021F48E81882351F12EC02F81B3
:1009A000388537FD20C06E812F3131051CF066235C
:1009B000F9F023C08EE190E0821B930B29853A85E4
:1009C0004B855C8504C056954795379527958A9544
:1009D000D2F76623B1F050954095309521953F4F61
:1009E0004F4F5F4F0EC020E030E040E050E009C0C4
:1009F0002FEF3FEF4FEF5FE704C020E030E040E033
:100A000050E8B901CA012C96E2E00C943B23A8E01F
:100A1000B0E0EDE0F5E00C9417237B018C0161154B
:100A200071058105910519F482E0898360C083E036
:100A300089838EE1C82ED12CDC82CB82ED82FE82AE
:100A40000F831887C801B7010E948005FC01319708
:100A5000F7FF3BC0222733272E1B3F0B57016801AE
:100A6000022E04C0D694C794B794A7940A94D2F7E0
:100A700040E050E060E070E081E090E0A0E0B0E0B5
:100A800004C0880F991FAA1FBB1F2A95D2F7019790
:100A9000A109B1098E219F21A023B1230097A105AF
:100AA000B10521F041E050E060E070E04A295B29A7
:100AB0006C297D294D835E836F8378878EE190E07A
:100AC0008E1B9F0B9C838B8312C0309781F00E2E60
:100AD00004C0EE0CFF1C001F111F0A94D2F7ED8218
:100AE000FE820F831887CE1ADF0ADC82CB821A823D
:100AF000CE0101960E94CF052896EAE00C9433239C
:100B0000EF92FF920F931F937B018C0180E0E81618
:100B100080E0F80681E0080780E0180788F48FEF8E
:100B2000E816F1040105110531F028F088E090E0A5
:100B3000A0E0B0E017C080E090E0A0E0B0E012C01C
:100B400080E0E81680E0F80680E0080781E01807FA
:100B500028F088E190E0A0E0B0E004C080E190E0FF
:100B6000A0E0B0E020E230E040E050E0281B390B8C
:100B70004A0B5B0B04C016950795F794E7948A958A
:100B8000D2F7F701E657FF4F8081281B3109410951
:100B90005109C9011F910F91FF90EF900895DF92C5
:100BA000EF92FF920F931F93FC01E480F580068182
:100BB0001781D1808081823048F480E090E0A0E10C
:100BC000B0E0E82AF92A0A2B1B2BA5C0843009F4CF
:100BD0009FC0823021F4EE24FF24870105C0E11478
:100BE000F1040105110519F4E0E0F0E096C062811E
:100BF00073819FEF623879070CF05BC022E83FEF0A
:100C0000261B370B2A3131052CF020E030E040E084
:100C100050E02AC0B801A701022E04C0769567955E
:100C2000579547950A94D2F781E090E0A0E0B0E0B4
:100C300004C0880F991FAA1FBB1F2A95D2F70197DE
:100C4000A109B1098E219F21A023B1230097A105FD
:100C5000B10521F081E090E0A0E0B0E09A01AB01A5
:100C6000282B392B4A2B5B2BDA01C9018F77907027
:100C7000A070B07080349105A105B10539F427FF4B
:100C800009C0205C3F4F4F4F5F4F04C0215C3F4F76
:100C90004F4F5F4FE0E0F0E02030A0E03A07A0E0E7
:100CA0004A07A0E45A0710F0E1E0F0E079018A0178
:100CB00027C06038710564F5FB01E158FF4FD8018A
:100CC000C7018F779070A070B07080349105A10536
:100CD000B10539F4E7FE0DC080E490E0A0E0B0E09B
:100CE00004C08FE390E0A0E0B0E0E80EF91E0A1F18
:100CF0001B1F17FF05C016950795F794E7943196CB
:100D000087E016950795F794E7948A95D1F705C083
:100D1000EE24FF248701EFEFF0E06E2F6795662742
:100D20006795902F9F77D794DD24D7948E2F869543
:100D3000492F462B582F5D29B701CA011F910F91EA
:100D4000FF90EF90DF900895FC01DB01408151811D
:100D50002281622F6F7770E0221F2227221F93814A
:100D6000892F880F822B282F30E0991F9927991FF0
:100D700011969C93119721153105A9F5411551053F
:100D80006105710511F482E037C082E89FEF139688
:100D90009C938E9312979A01AB0167E0220F331F49
:100DA000441F551F6A95D1F783E08C930DC0220F25
:100DB000331F441F551F12968D919C9113970197D5
:100DC00013969C938E931297203080E0380780E032
:100DD000480780E4580758F314962D933D934D939C
:100DE0005C93179708952F3F310579F4411551050C
:100DF0006105710519F484E08C93089564FF03C0C4
:100E000081E08C9312C01C9210C02F573040139673
:100E10003C932E93129783E08C9387E0440F551FE9
:100E2000661F771F8A95D1F7706414964D935D9372
:100E30006D937C93179708951F93DC01FB019C91A0
:100E4000923008F447C08081823008F443C0943067
:100E500051F411961C91843099F58181682F70E0CE
:100E6000611B71093FC0843021F0923031F482302F
:100E7000B9F18181882389F12DC011961C911197B8
:100E80008230F1F081811817D9F412962D913C919E
:100E90001397828193818217930794F0281739075B
:100EA000BCF014968D919D910D90BC91A02D248144
:100EB000358146815781281739074A075B0718F49F
:100EC000112341F00AC082179307A407B50740F425
:100ED000112319F061E070E005C06FEF7FEF02C0F1
:100EE00060E070E0CB011F910895DF93CF93CDB701
:100EF000DEB7A1E4B0E0E1E4F0E0808188608C93AB
:100F0000A1E4B0E0E1E4F0E0808181608C93A1E4B1
:100F1000B0E0E1E4F0E0808182608C93A1E4B0E095
:100F2000E1E4F0E0808184608C93CF91DF910895BB
:100F3000DF93CF93CDB7DEB7A1E4B0E0E1E4F0E01A
:100F4000808180618C93A1E4B0E0E1E4F0E08081F5
:100F5000877F8C93CF91DF910895DF93CF93CDB7A7
:100F6000DEB7A895CF91DF910895DF93CF93CDB7EA
:100F7000DEB7E9E2F0E087E68083A0E4B0E0E0E4F9
:100F8000F0E080818F7B8C93A0E4B0E0E0E4F0E0BF
:100F900080818F7E8C93A0E4B0E0E0E4F0E080817B
:100FA0008F7D8C93A0E4B0E0E0E4F0E0808182608B
:100FB0008C93A0E4B0E0E0E4F0E0808184608C9366
:100FC000AAE2B0E0EAE2F0E080818B7F8C93A0E4BB
:100FD000B0E0E0E4F0E08081877F8C93AAE2B0E0AB
:100FE000EAE2F0E0808188608C93AAE2B0E0EAE275
:100FF000F0E0808180618C93CF91DF910895DF9341
:10100000CF9300D000D00F92CDB7DEB78D83ECE246
:10101000F0E08D81808319821A821B821C8218C0A5
:1010200089819A81AB81BC810196A11DB11D898303
:101030009A83AB83BC83EBE2F0E080818295869556
:1010400086958370882F90E081709070882361F47A
:1010500089819A81AB81BC81803221EA920727E0A5
:10106000A20720E0B207E0F20F900F900F900F90D0
:101070000F90CF91DF910895DF93CF9300D000D0F0
:10108000CDB7DEB79C838B831A82198289819A81BE
:1010900001969A838983EBE2F0E08081881F88279C
:1010A000881F813099F7ECE2F0E08081EB81FC81D0
:1010B00080830F900F900F900F90CF91DF91089544
:1010C000DF93CF93CDB7DEB784E065E041E00E94C7
:1010D000AB0BAFE4B0E0EFE4F0E080818E7F8C9367
:1010E000AFE4B0E0EFE4F0E0808182608C93AEE4A6
:1010F000B0E0EEE4F0E0808188608C93AEE4B0E094
:10110000EEE4F0E0808180618C93AFE4B0E0EFE446
:10111000F0E0808180688C93AFE4B0E0EFE4F0E031
:1011200080818F7B8C93CF91DF9108950F931F93D4
:10113000DF93CF9300D000D0CDB7DEB769837A8339
:101140008B839C8306E410E084E294EFA0E0B0E09F
:1011500029813A814B815C81BC01CD010E94BE2274
:10116000DA01C901F801918380830F900F900F90ED
:101170000F90CF91DF911F910F9108950F931F93BF
:10118000DF93CF9300D000D0CDB7DEB769837A83E9
:101190008B839C830AE410E0E6E4F0E08081918197
:1011A000CC01A0E0B0E0BC01CD010E940705DC014C
:1011B000CB01BC01CD0129813A814B815C810E9428
:1011C0001F02DC01CB01BC01CD0120E030E048EC86
:1011D00052E40E941903DC01CB01BC01CD0120E0E7
:1011E00030E040E85FE30E94C101DC01CB01BC01BB
:1011F000CD010E944900DC01CB01F801918380837D
:101200000F900F900F900F90CF91DF911F910F9142
:101210000895DF93CF93CDB7DEB7AEE4B0E0EEE450
:10122000F0E080818E7F8C93AEE4B0E0EEE4F0E0FD
:1012300080818D7F8C93AEE4B0E0EEE4F0E08081BD
:1012400084608C93CF91DF910895DF93CF93CDB7D6
:10125000DEB7AEE4B0E0EEE4F0E080818E7F8C9308
:10126000AEE4B0E0EEE4F0E080818D7F8C93AEE4FC
:10127000B0E0EEE4F0E080818B7F8C93CF91DF9142
:101280000895DF93CF93CDB7DEB7A3E5B0E0E3E5F4
:10129000F0E080818F7B8C93A3E5B0E0E3E5F0E0A4
:1012A000808188608C93A9E5B0E0E9E5F0E0808179
:1012B00082608C93CF91DF910895DF93CF93CDB768
:1012C000DEB72D970FB6F894DEBF0FBECDBF6A878D
:1012D0007B878C879D8780E490E0A0E0B0E08E83E0
:1012E0009F83A887B9878A859B85AC85BD8528EEB5
:1012F00033E040E050E0BC01CD010E948022DC01DF
:10130000CB012E813F8148855985BC01CD010E94CA
:10131000BE22DA01C9018A839B83AC83BD838FEF30
:10132000898303C08981815089838981282F30E096
:1013300040E050E08A819B81AC81BD81BC01CD0140
:101340000E94BE22DC01CB010097A105B10551F737
:101350008981282F30E040E050E08A819B81AC8178
:10136000BD81BC01CD010E94BE22DA01C90180937A
:101370009F019093A001A093A101B093A201ECE57D
:10138000F0E08981815080832D960FB6F894DEBFFE
:101390000FBECDBFCF91DF910895DF93CF93CDB72F
:1013A000DEB7A3E5B0E0E3E5F0E0808181608C93F7
:1013B000A3E5B0E0E3E5F0E080818D7F8C93A3E5C9
:1013C000B0E0E3E5F0E0808184608C93CF91DF9121
:1013D0000895DF93CF93CDB7DEB7A3E5B0E0E3E5A3
:1013E000F0E080818E7F8C93A3E5B0E0E3E5F0E050
:1013F00080818D7F8C93A3E5B0E0E3E5F0E0808110
:101400008B7F8C93CF91DF910895DF93CF93CDB7EE
:10141000DEB782E063E041E00E94AB0BA3E5B0E001
:10142000E3E5F0E0808180648C93A3E5B0E0E3E540
:10143000F0E08081877F8C93A3E5B0E0E3E5F0E006
:10144000808180628C93A3E5B0E0E3E5F0E08081E9
:101450008F7E8C93CF91DF910895DF93CF930F927E
:10146000CDB7DEB78983ECE5F0E08981482F50E005
:10147000CA019C01220F331FC9019695982F882716
:1014800097958795821B930B840F951F24E630E078
:10149000B9010E94AB22CB0180830F90CF91DF91E5
:1014A0000895DF93CF93CDB7DEB70E94CD09CF91DA
:1014B000DF910895DF93CF93CDB7DEB70E94E9099E
:1014C000CF91DF910895DF93CF9300D0CDB7DEB7F2
:1014D0009A83898389819A819093AA018093A90133
:1014E0000F900F90CF91DF9108951F920F920FB63A
:1014F0000F9211242F933F934F935F936F937F939A
:101500008F939F93AF93BF93EF93FF93DF93CF930B
:10151000CDB7DEB78091A3019091A401A091A50160
:10152000B091A6010196A11DB11D8093A3019093D6
:10153000A401A093A501B093A6012091A30130912D
:10154000A4014091A5015091A60180919F01909125
:10155000A001A091A101B091A201281739074A0763
:101560005B0769F4E091A901F091AA010995109235
:10157000A3011092A4011092A5011092A601CF918F
:10158000DF91FF91EF91BF91AF919F918F917F91EB
:101590006F915F914F913F912F910F900FBE0F90E0
:1015A0001F901895DF93CF93CDB7DEB7ADE2B0E0D3
:1015B000EDE2F0E080818F7E8C9382E064E040E099
:1015C0000E94AB0B82E065E040E00E94AB0B82E042
:1015D00066E041E00E94AB0B82E067E040E00E94E1
:1015E000AB0BADE2B0E0EDE2F0E0808180628C9385
:1015F000ADE2B0E0EDE2F0E0808181608C93ADE29D
:10160000B0E0EDE2F0E0808182608C93ADE2B0E08A
:10161000EDE2F0E0808180648C93CF91DF910895BA
:10162000DF93CF930F92CDB7DEB78983EFE2F0E07F
:1016300089818083EEE2F0E080818823DCF7EFE2AD
:10164000F0E080810F90CF91DF910895DF93CF93E9
:10165000CDB7DEB7AFE5B0E0EFE5F0E080818068C0
:101660008C93CF91DF910895DF93CF93CDB7DEB701
:10167000AFE5B0E0EFE5F0E080818F778C93CF911C
:10168000DF910895DF93CF93CDB7DEB7ABE5B0E040
:10169000EBE5F0E0808180648C93A5E5B0E0E5E5C2
:1016A000F0E0808182608C93A5E5B0E0E5E5F0E0B4
:1016B00080818E7F8C93CF91DF910895DF93CF93BC
:1016C000CDB7DEB7ABE5B0E0EBE5F0E080818F7B36
:1016D0008C93CF91DF910895DF93CF9300D0CDB756
:1016E000DEB79A83898389819A819093AC01809334
:1016F000AB010F900F90CF91DF9108951F920F9241
:101700000FB60F9211242F933F934F935F936F93D4
:101710007F938F939F93AF93BF93EF93FF93DF9349
:10172000CF93CDB7DEB7E091AB01F091AC01099555
:10173000CF91DF91FF91EF91BF91AF919F918F91E9
:101740007F916F915F914F913F912F910F900FBEBD
:101750000F901F901895DF93CF93CDB7DEB72997E1
:101760000FB6F894DEBF0FBECDBF89836A834B836B
:101770008B81282F30E039872887888599850097C5
:1017800039F0288539852130310509F476C0E4C067
:101790008981282F30E03F832E838E819F81823084
:1017A000910561F12E813F812330310534F48E8122
:1017B0009F818130910569F0CFC02E813F81233018
:1017C000310589F18E819F818430910509F440C0F3
:1017D000C3C0AAE3B0E0EAE3F0E08081482F8A8149
:1017E000282F30E081E090E0022E02C0880F991F80
:1017F0000A94E2F7809584238C93AEC0A7E3B0E00F
:10180000E7E3F0E08081482F8A81282F30E081E0F3
:1018100090E0022E02C0880F991F0A94E2F780958B
:1018200084238C9399C0A4E3B0E0E4E3F0E08081EA
:10183000482F8A81282F30E081E090E0022E02C0FC
:10184000880F991F0A94E2F7809584238C9384C0B3
:10185000A1E3B0E0E1E3F0E08081482F8A81282F06
:1018600030E081E090E0022E02C0880F991F0A94B8
:10187000E2F7809584238C936FC08981282F30E014
:101880003D832C838C819D818230910551F12C8187
:101890003D812330310534F48C819D818130910567
:1018A00061F05AC02C813D812330310571F18C816A
:1018B0009D8184309105E9F14FC0AAE3B0E0EAE3ED
:1018C000F0E08081482F8A81282F30E081E090E08D
:1018D000022E02C0880F991F0A94E2F7842B8C9382
:1018E0003BC0A7E3B0E0E7E3F0E08081482F8A81C6
:1018F000282F30E081E090E0022E02C0880F991F6F
:101900000A94E2F7842B8C9327C0A4E3B0E0E4E3CD
:10191000F0E08081482F8A81282F30E081E090E03C
:10192000022E02C0880F991F0A94E2F7842B8C9331
:1019300013C0A1E3B0E0E1E3F0E08081482F8A81A9
:10194000282F30E081E090E0022E02C0880F991F1E
:101950000A94E2F7842B8C9329960FB6F894DEBF95
:101960000FBECDBFCF91DF910895DF93CF93CDB759
:10197000DEB729970FB6F894DEBF0FBECDBF8983BF
:101980006A834B838B81282F30E0398728878885AD
:101990009985009739F0288539852130310509F47A
:1019A00076C0E4C08981282F30E03F832E838E816A
:1019B0009F818230910561F12E813F812330310575
:1019C00034F48E819F818130910569F0CFC02E81E2
:1019D0003F812330310589F18E819F8184309105CB
:1019E00009F440C0C3C0ABE3B0E0EBE3F0E08081BA
:1019F000482F8A81282F30E081E090E0022E02C03B
:101A0000880F991F0A94E2F7809584238C93AEC0C7
:101A1000A8E3B0E0E8E3F0E08081482F8A81282F36
:101A200030E081E090E0022E02C0880F991F0A94F6
:101A3000E2F7809584238C9399C0A5E3B0E0E5E3B9
:101A4000F0E08081482F8A81282F30E081E090E00B
:101A5000022E02C0880F991F0A94E2F78095842312
:101A60008C9384C0A2E3B0E0E2E3F0E08081482FF1
:101A70008A81282F30E081E090E0022E02C0880F9A
:101A8000991F0A94E2F7809584238C936FC0898113
:101A9000282F30E03D832C838C819D8182309105FD
:101AA00051F12C813D812330310534F48C819D81AD
:101AB0008130910561F05AC02C813D812330310580
:101AC00071F18C819D8184309105E9F14FC0ABE3C8
:101AD000B0E0EBE3F0E08081482F8A81282F30E0EE
:101AE00081E090E0022E02C0880F991F0A94E2F76D
:101AF000842B8C933BC0A8E3B0E0E8E3F0E0808166
:101B0000482F8A81282F30E081E090E0022E02C029
:101B1000880F991F0A94E2F7842B8C9327C0A5E3C2
:101B2000B0E0E5E3F0E08081482F8A81282F30E0A3
:101B300081E090E0022E02C0880F991F0A94E2F71C
:101B4000842B8C9313C0A2E3B0E0E2E3F0E0808149
:101B5000482F8A81282F30E081E090E0022E02C0D9
:101B6000880F991F0A94E2F7842B8C9329960FB65D
:101B7000F894DEBF0FBECDBFCF91DF910895DF9304
:101B8000CF9300D000D0CDB7DEB789836A83898137
:101B9000282F30E03C832B838B819C818230910500
:101BA00051F12B813C812330310534F48B819C81B0
:101BB0008130910561F05AC02B813C812330310581
:101BC00071F18B819C8184309105E9F14FC0ABE3C9
:101BD000B0E0EBE3F0E08081482F8A81282F30E0ED
:101BE00081E090E0022E02C0880F991F0A94E2F76C
:101BF00084278C933BC0A8E3B0E0E8E3F0E0808169
:101C0000482F8A81282F30E081E090E0022E02C028
:101C1000880F991F0A94E2F784278C9327C0A5E3C5
:101C2000B0E0E5E3F0E08081482F8A81282F30E0A2
:101C300081E090E0022E02C0880F991F0A94E2F71B
:101C400084278C9313C0A2E3B0E0E2E3F0E080814C
:101C5000482F8A81282F30E081E090E0022E02C0D8
:101C6000880F991F0A94E2F784278C930F900F90A6
:101C70000F900F90CF91DF910895DF93CF9300D015
:101C800000D00F92CDB7DEB78A836B8319828A8129
:101C9000282F30E03D832C834C815D8142305105FB
:101CA00041F18C819D818330910534F42C813D81FB
:101CB0002130310561F052C04C815D8143305105C6
:101CC00051F18C819D8184309105B9F147C0E9E3E0
:101CD000F0E08081282F30E08B81882F90E0A901EF
:101CE00002C0559547958A95E2F7CA0181708983AC
:101CF00035C0E6E3F0E08081282F30E08B81882F2B
:101D000090E0A90102C0559547958A95E2F7CA016E
:101D10008170898323C0E3E3F0E08081282F30E0E5
:101D20008B81882F90E0A90102C0559547958A952F
:101D3000E2F7CA018170898311C0E0E3F0E080819D
:101D4000282F30E08B81882F90E0A90102C05595A3
:101D500047958A95E2F7CA018170898389810F903E
:101D60000F900F900F900F90CF91DF910895DF9318
:101D7000CF93CDB7DEB7A7E2B0E0E7E2F0E0808135
:101D800080648C93A7E2B0E0E7E2F0E080818F7797
:101D90008C93A7E2B0E0E7E2F0E080818F7D8C9346
:101DA000A7E2B0E0E7E2F0E080818E7F8C93A7E2CB
:101DB000B0E0E7E2F0E080818D7F8C93A7E2B0E0B5
:101DC000E7E2F0E080818B7F8C93A7E2B0E0E7E26E
:101DD000F0E08081877F8C93A7E2B0E0E7E2F0E05B
:101DE00080818F7E8C93A6E2B0E0E6E2F0E0808115
:101DF00081608C93A6E2B0E0E6E2F0E08081826050
:101E00008C93A6E2B0E0E6E2F0E0808182608C9301
:101E1000A6E2B0E0E6E2F0E0808180628C93A0E58B
:101E2000B0E0E0E5F0E080818F778C93A0E5B0E052
:101E3000E0E5F0E080818F7B8C93A0E5B0E0E0E509
:101E4000F0E080818F7D8C93A6E2B0E0E6E2F0E0E6
:101E5000808180688C93CF91DF910895DF93CF9339
:101E6000CDB7DEB7A6E2B0E0E6E2F0E080818064C4
:101E70008C93E6E2F0E0808182958F70882F90E06D
:101E8000817090700097A9F3E4E2F0E08081918185
:101E9000CF91DF910895DF93CF93CDB7DEB781E087
:101EA00060E040E00E94AB0BCF91DF910895DF939B
:101EB000CF9300D0CDB7DEB71A820E942E0F8A834F
:101EC0008A81882F90E0A0E0B0E024EF31E040E08C
:101ED00050E0BC01CD010E948022DC01CB012FEF3C
:101EE00033E040E050E0BC01CD010E94BE22DA01A7
:101EF000C901898389810F900F90CF91DF91089557
:101F0000DF93CF93CDB7DEB781E060E041E00E9480
:101F1000AB0B81E061E041E00E94AB0B81E062E04D
:101F200041E00E94AB0B81E063E041E00E94AB0B1B
:101F300081E064E041E00E94AB0B81E065E041E0BC
:101F40000E94AB0B81E066E041E00E94AB0B81E0B8
:101F500067E041E00E94AB0B83E066E041E00E9455
:101F6000AB0B83E067E041E00E94AB0BCF91DF91C8
:101F70000895DF93CF93CDB7DEB7A4970FB6F8944B
:101F8000DEBF0FBECDBF88A388A19AE0692F0E9453
:101F90009F22892F8F8F88A19AE0692F0E949F220C
:101FA0008E8F1D8E77C48F8D282F30E03CA32BA3FE
:101FB0008BA19CA18430910509F4D7C02BA13CA131
:101FC00025303105ECF48BA19CA18130910509F4F9
:101FD00060C02BA13CA1223031052CF48BA19CA127
:101FE000009799F199C12BA13CA12230310509F448
:101FF00074C08BA19CA18330910509F492C08CC15F
:102000002BA13CA12730310509F41BC18BA19CA158
:10201000883091056CF42BA13CA12530310509F4E1
:10202000C8C08BA19CA18630910509F4E6C074C19B
:102030002BA13CA12830310509F427C18BA19CA11B
:102040008930910509F445C167C181E060E041E054
:102050000E94B50C81E061E041E00E94B50C81E096
:1020600062E041E00E94B50C81E063E041E00E9443
:10207000B50C81E064E041E00E94B50C81E065E0D0
:1020800041E00E94B50C81E066E040E00E94B50CA2
:1020900043C181E060E040E00E94B50C81E061E076
:1020A00041E00E94B50C81E062E041E00E94B50C85
:1020B00081E063E040E00E94B50C81E064E040E034
:1020C0000E94B50C81E065E040E00E94B50C81E023
:1020D00066E040E00E94B50C1FC181E060E041E095
:1020E0000E94B50C81E061E041E00E94B50C81E006
:1020F00062E040E00E94B50C81E063E041E00E94B4
:10210000B50C81E064E041E00E94B50C81E065E03F
:1021100040E00E94B50C81E066E041E00E94B50C11
:10212000FBC081E060E041E00E94B50C81E061E02D
:1021300041E00E94B50C81E062E041E00E94B50CF4
:1021400081E063E041E00E94B50C81E064E040E0A2
:102150000E94B50C81E065E040E00E94B50C81E092
:1021600066E041E00E94B50CD7C081E060E040E04D
:102170000E94B50C81E061E041E00E94B50C81E075
:1021800062E041E00E94B50C81E063E040E00E9423
:10219000B50C81E064E040E00E94B50C81E065E0B0
:1021A00041E00E94B50C81E066E041E00E94B50C80
:1021B000B3C081E060E041E00E94B50C81E061E0E5
:1021C00040E00E94B50C81E062E041E00E94B50C65
:1021D00081E063E041E00E94B50C81E064E040E012
:1021E0000E94B50C81E065E041E00E94B50C81E001
:1021F00066E041E00E94B50C8FC081E060E041E004
:102200000E94B50C81E061E041E00E94B50C81E0E4
:1022100062E041E00E94B50C81E063E041E00E9491
:10222000B50C81E064E041E00E94B50C81E065E01E
:1022300040E00E94B50C81E066E041E00E94B50CF0
:102240006BC081E060E041E00E94B50C81E061E09C
:1022500041E00E94B50C81E062E041E00E94B50CD3
:1022600081E063E040E00E94B50C81E064E040E082
:102270000E94B50C81E065E041E00E94B50C81E070
:1022800066E040E00E94B50C47C081E060E041E0BC
:102290000E94B50C81E061E041E00E94B50C81E054
:1022A00062E041E00E94B50C81E063E041E00E9401
:1022B000B50C81E064E041E00E94B50C81E065E08E
:1022C00041E00E94B50C81E066E041E00E94B50C5F
:1022D00023C081E060E041E00E94B50C81E061E054
:1022E00041E00E94B50C81E062E041E00E94B50C43
:1022F00081E063E041E00E94B50C81E064E040E0F1
:102300000E94B50C81E065E041E00E94B50C81E0DF
:1023100066E041E00E94B50C83E066E040E00E9488
:10232000B50C83E067E041E00E94B50C80E090E0EE
:10233000A0E8BFE3898F9A8FAB8FBC8F698D7A8DB0
:102340008B8D9C8D20E030E04AE753E40E941F0211
:10235000DC01CB018D8B9E8BAF8BB88F6D897E8915
:102360008F89988D20E030E040E85FE30E942504EB
:1023700088232CF481E090E09C8B8B8B3FC06D898F
:102380007E898F89988D20E03FEF4FE757E40E94C8
:10239000C50318164CF5698D7A8D8B8D9C8D20E0C8
:1023A00030E040E251E40E941F02DC01CB01BC019D
:1023B000CD010E944900DC01CB019C8B8B8B0FC0AF
:1023C00089E190E09A8B898B89899A890197F1F745
:1023D0009A8B898B8B899C8901979C8B8B8B8B89A2
:1023E0009C89009769F714C06D897E898F89988DC3
:1023F0000E944900DC01CB019C8B8B8B8B899C89D3
:10240000988B8F878F8598890197F1F7988B8F87A5
:1024100083E066E041E00E94B50C8E8D282F30E00D
:102420003AA329A389A19AA18430910509F4D7C0C0
:1024300029A13AA125303105ECF489A19AA1813076
:10244000910509F460C029A13AA1223031052CF48C
:1024500089A19AA1009799F199C129A13AA12230A5
:10246000310509F474C089A19AA18330910509F45A
:1024700092C08CC129A13AA12730310509F41BC1B2
:1024800089A19AA1883091056CF429A13AA125303F
:10249000310509F4C8C089A19AA18630910509F4D3
:1024A000E6C074C129A13AA12830310509F427C139
:1024B00089A19AA18930910509F445C167C181E0DC
:1024C00060E041E00E94B50C81E061E041E00E94E3
:1024D000B50C81E062E041E00E94B50C81E063E070
:1024E00041E00E94B50C81E064E041E00E94B50C3F
:1024F00081E065E041E00E94B50C81E066E040E0EB
:102500000E94B50C43C181E060E040E00E94B50C40
:1025100081E061E041E00E94B50C81E062E041E0D1
:102520000E94B50C81E063E040E00E94B50C81E0C0
:1025300064E040E00E94B50C81E065E040E00E946C
:10254000B50C81E066E040E00E94B50C1FC181E05F
:1025500060E041E00E94B50C81E061E041E00E9452
:10256000B50C81E062E040E00E94B50C81E063E0E0
:1025700041E00E94B50C81E064E041E00E94B50CAE
:1025800081E065E040E00E94B50C81E066E041E05A
:102590000E94B50CFBC081E060E041E00E94B50CF8
:1025A00081E061E041E00E94B50C81E062E041E041
:1025B0000E94B50C81E063E041E00E94B50C81E02F
:1025C00064E040E00E94B50C81E065E040E00E94DC
:1025D000B50C81E066E041E00E94B50CD7C081E017
:1025E00060E040E00E94B50C81E061E041E00E94C3
:1025F000B50C81E062E041E00E94B50C81E063E04F
:1026000040E00E94B50C81E064E040E00E94B50C1F
:1026100081E065E041E00E94B50C81E066E041E0C8
:102620000E94B50CB3C081E060E041E00E94B50CAF
:1026300081E061E040E00E94B50C81E062E041E0B1
:102640000E94B50C81E063E041E00E94B50C81E09E
:1026500064E040E00E94B50C81E065E041E00E944A
:10266000B50C81E066E041E00E94B50C8FC081E0CE
:1026700060E041E00E94B50C81E061E041E00E9431
:10268000B50C81E062E041E00E94B50C81E063E0BE
:1026900041E00E94B50C81E064E041E00E94B50C8D
:1026A00081E065E040E00E94B50C81E066E041E039
:1026B0000E94B50C6BC081E060E041E00E94B50C67
:1026C00081E061E041E00E94B50C81E062E041E020
:1026D0000E94B50C81E063E040E00E94B50C81E00F
:1026E00064E040E00E94B50C81E065E041E00E94BA
:1026F000B50C81E066E040E00E94B50C47C081E087
:1027000060E041E00E94B50C81E061E041E00E94A0
:10271000B50C81E062E041E00E94B50C81E063E02D
:1027200041E00E94B50C81E064E041E00E94B50CFC
:1027300081E065E041E00E94B50C81E066E041E0A7
:102740000E94B50C23C081E060E041E00E94B50C1E
:1027500081E061E041E00E94B50C81E062E041E08F
:102760000E94B50C81E063E041E00E94B50C81E07D
:1027700064E040E00E94B50C81E065E041E00E9429
:10278000B50C81E066E041E00E94B50C83E066E0B4
:1027900041E00E94B50C83E067E040E00E94B50C88
:1027A00080E090E0A0E8BFE38B879C87AD87BE8781
:1027B0006B857C858D859E8520E030E04AE753E47B
:1027C0000E941F02DC01CB018F839887A987BA87FB
:1027D0006F81788589859A8520E030E040E85FE365
:1027E0000E94250488232CF481E090E09E838D8351
:1027F0003FC06F81788589859A8520E03FEF4FE75C
:1028000057E40E94C50318164CF56B857C858D85B1
:102810009E8520E030E040E251E40E941F02DC018E
:10282000CB01BC01CD010E944900DC01CB019E839C
:102830008D830FC089E190E09C838B838B819C8189
:102840000197F1F79C838B838D819E8101979E83F5
:102850008D838D819E81009769F714C06F81788583
:1028600089859A850E944900DC01CB019E838D8376
:102870008D819E819A83898389819A810197F1F75D
:102880009A83898383E067E041E00E94B50C8D8DD7
:102890008F5F8D8F8D8D883C08F485CBA4960FB605
:1028A000F894DEBF0FBECDBFCF91DF910895DF93C7
:1028B000CF9300D0CDB7DEB78A8319828A8189830E
:1028C00006C089810E94B90F8981815089838981DD
:1028D0008823BCF70F900F90CF91DF910895DF937D
:1028E000CF93CDB7DEB70E94600862E370E080E06E
:1028F00090E00E949608CF91DF910895DF93CF93E7
:1029000000D000D00F92CDB7DEB78D838D81882F98
:1029100090E0AA2797FDA095BA2FBC01CD010E9497
:102920005504DC01CB01BC01CD0120E030E040EAE0
:1029300050E40E941F02DC01CB01BC01CD0120E06C
:1029400030E044E353E40E941903DC01CB01BC01F5
:10295000CD0120E030E040EA50E40E94F201DC01C9
:10296000CB0189839A83AB83BC8389819A81AB81B4
:10297000BC81BC01CD010E94BE080F900F900F904A
:102980000F900F90CF91DF910895DF93CF93CDB744
:10299000DEB70E940909CF91DF910895DF93CF93AD
:1029A000CDB7DEB70E942509CF91DF910895DF935F
:1029B000CF9300D00F92CDB7DEB789838981282FBE
:1029C00030E03B832A838A819B8182309105E1F04C
:1029D0002A813B812330310534F48A819B81813007
:1029E000910561F022C02A813B812330310591F0AD
:1029F0008A819B818430910599F017C084E062E060
:102A000040E00E94AB0B11C084E063E040E00E9414
:102A1000AB0B0BC084E064E040E00E94AB0B05C050
:102A200084E065E040E00E94AB0B0F900F900F90A8
:102A3000CF91DF910895DF93CF93CDB7DEB7EC97B9
:102A40000FB6F894DEBF0FBECDBF8AAF19AE8AAD08
:102A5000282F30E03CAF2BAF8BAD9CAD8230910581
:102A600009F4A2C02BAD3CAD2330310534F48BAD5D
:102A70009CAD8130910571F033C22BAD3CAD23305C
:102A8000310509F41BC18BAD9CAD8430910509F46F
:102A90009FC126C284E062E00E943D0E89AF89ADED
:102AA000882309F01DC280E090E0A0E7B2E48DAB7E
:102AB0009EABAFABB8AF6DA97EA98FA998AD20E052
:102AC00030E04AE753E40E941F02DC01CB0189ABEE
:102AD0009AABABABBCAB69A97AA98BA99CA920E046
:102AE00030E040E85FE30E94250488232CF481E075
:102AF00090E098AB8FA73FC069A97AA98BA99CA940
:102B000020E03FEF4FE757E40E94C50318164CF54D
:102B10006DA97EA98FA998AD20E030E040E251E494
:102B20000E941F02DC01CB01BC01CD010E944900C3
:102B3000DC01CB0198AB8FA70FC089E190E09EA785
:102B40008DA78DA59EA50197F1F79EA78DA78FA5AF
:102B500098A9019798AB8FA78FA598A9009769F7B7
:102B600014C069A97AA98BA99CA90E944900DC011B
:102B7000CB0198AB8FA78FA598A99CA78BA78BA5F6
:102B80009CA50197F1F79CA78BA784E062E00E94C7
:102B90003D0E882309F0A4C184E062E00E943D0E4E
:102BA0008823D1F319AE9CC184E063E00E943D0EFE
:102BB00089AF89AD882309F093C180E090E0A0E758
:102BC000B2E48FA398A7A9A7BAA76FA178A589A5F2
:102BD0009AA520E030E04AE753E40E941F02DC019E
:102BE000CB018BA39CA3ADA3BEA36BA17CA18DA1A4
:102BF0009EA120E030E040E85FE30E9425048823A6
:102C00002CF481E090E09AA389A33FC06BA17CA142
:102C10008DA19EA120E03FEF4FE757E40E94C5033E
:102C200018164CF56FA178A589A59AA520E030E08B
:102C300040E251E40E941F02DC01CB01BC01CD0146
:102C40000E944900DC01CB019AA389A30FC089E14E
:102C500090E098A38F8F8F8D98A10197F1F798A39B
:102C60008F8F89A19AA101979AA389A389A19AA17B
:102C7000009769F714C06BA17CA18DA19EA10E9451
:102C80004900DC01CB019AA389A389A19AA19E8F57
:102C90008D8F8D8D9E8D0197F1F79E8F8D8F84E0A6
:102CA00063E00E943D0E882309F01AC184E063E0CE
:102CB0000E943D0E8823D1F319AE12C184E064E076
:102CC0000E943D0E89AF89AD882309F009C180E0DB
:102CD00090E0A0E7B2E4898F9A8FAB8FBC8F698DAB
:102CE0007A8D8B8D9C8D20E030E04AE753E40E9482
:102CF0001F02DC01CB018D8B9E8BAF8BB88F6D8952
:102D00007E898F89988D20E030E040E85FE30E9463
:102D1000250488232CF481E090E09C8B8B8B3FC0B2
:102D20006D897E898F89988D20E03FEF4FE757E4CA
:102D30000E94C50318164CF5698D7A8D8B8D9C8D7C
:102D400020E030E040E251E40E941F02DC01CB01B0
:102D5000BC01CD010E944900DC01CB019C8B8B8B17
:102D60000FC089E190E09A8B898B89899A890197B4
:102D7000F1F79A8B898B8B899C8901979C8B8B8B24
:102D80008B899C89009769F714C06D897E898F892A
:102D9000988D0E944900DC01CB019C8B8B8B8B8929
:102DA0009C89988B8F878F8598890197F1F7988BED
:102DB0008F8784E064E00E943D0E882309F090C074
:102DC00084E064E00E943D0E8823D1F319AE88C0F0
:102DD00084E065E00E943D0E89AF89AD882309F04B
:102DE0007FC080E090E0A0E7B2E48B879C87AD874E
:102DF000BE876B857C858D859E8520E030E04AE727
:102E000053E40E941F02DC01CB018F839887A987BE
:102E1000BA876F81788589859A8520E030E040E81F
:102E20005FE30E94250488232CF481E090E09E83D8
:102E30008D833FC06F81788589859A8520E03FEF3B
:102E40004FE757E40E94C50318164CF56B857C8547
:102E50008D859E8520E030E040E251E40E941F0213
:102E6000DC01CB01BC01CD010E944900DC01CB019A
:102E70009E838D830FC089E190E09C838B838B813F
:102E80009C810197F1F79C838B838D819E810197B3
:102E90009E838D838D819E81009769F714C06F8119
:102EA000788589859A850E944900DC01CB019E8343
:102EB0008D838D819E819A83898389819A810197EF
:102EC000F1F79A83898384E065E00E943D0E8823B0
:102ED00039F484E065E00E943D0E8823D1F319AEF9
:102EE00089ADEC960FB6F894DEBF0FBECDBFCF9183
:102EF000DF910895DF93CF9300D00F92CDB7DEB767
:102F000089838981282F30E03B832A838A819B81B2
:102F10008230910511F12A813B812330310534F44F
:102F20008A819B818130910561F022C02A813B8199
:102F30002330310561F08A819B818430910599F0BD
:102F400017C083E060E041E00E94AB0B11C083E05A
:102F500061E041E00E94AB0B0BC083E062E041E026
:102F60000E94AB0B05C083E063E041E00E94AB0B25
:102F70000F900F900F90CF91DF910895DF93CF9333
:102F800000D00F92CDB7DEB789838981282F30E03A
:102F90003B832A838A819B818230910511F12A81AA
:102FA0003B812330310534F48A819B818130910546
:102FB00061F022C02A813B812330310561F08A8192
:102FC0009B818430910599F017C083E060E041E077
:102FD0000E94B50C11C083E061E041E00E94B50C95
:102FE0000BC083E062E041E00E94B50C05C083E0C5
:102FF00063E041E00E94B50C0F900F900F90CF91CD
:10300000DF910895DF93CF9300D00F92CDB7DEB755
:1030100089838981282F30E03B832A838A819B81A1
:1030200082309105B1F02A813B812330310534F49F
:103030008A819B818130910591F022C02A813B8158
:103040002330310591F08A819B818430910599F07C
:1030500017C083E062E040E00E94B50C11C083E03D
:1030600060E040E00E94B50C0BC083E061E040E00E
:103070000E94B50C05C083E063E040E00E94B50CFF
:103080000F900F900F90CF91DF910895DF93CF9322
:1030900000D00F92CDB7DEB789838981282F30E029
:1030A0003B832A838A819B8182309105B1F02A81FA
:1030B0003B812330310534F48A819B818130910535
:1030C00089F01EC02A813B812330310581F08A813D
:1030D0009B818430910581F013C083E062E00E94FF
:1030E000BF0D0EC083E060E00E94BF0D09C083E009
:1030F00061E00E94BF0D04C083E063E00E94BF0D49
:103100000F900F900F90CF91DF910895DF93CF93A1
:10311000CDB7DEB7EB970FB6F894DEBF0FBECDBFCD
:1031200089AF89AD282F30E03BAF2AAF8AAD9BAD88
:1031300082309105C9F02AAD3BAD233031053CF416
:103140008AAD9BAD8130910509F48BC000C22AADD8
:103150003BAD2330310509F401C18AAD9BAD84300C
:10316000910509F478C1F3C183E062E041E00E9477
:10317000B50C80E090E5A3ECB7E48DAB9EABAFABB4
:10318000B8AF6DA97EA98FA998AD20E030E04AE7DD
:1031900053E40E941F02DC01CB0189AB9AABABABBD
:1031A000BCAB69A97AA98BA99CA920E030E040E8D2
:1031B0005FE30E94250488232CF481E090E098AB23
:1031C0008FA73FC069A97AA98BA99CA920E03FEFEE
:1031D0004FE757E40E94C50318164CF56DA97EA968
:1031E0008FA998AD20E030E040E251E40E941F0238
:1031F000DC01CB01BC01CD010E944900DC01CB0107
:1032000098AB8FA70FC089E190E09EA78DA78DA5F1
:103210009EA50197F1F79EA78DA78FA598A9019765
:1032200098AB8FA78FA598A9009769F714C069A9D3
:103230007AA98BA99CA90E944900DC01CB0198AB1B
:103240008FA78FA598A99CA78BA78BA59CA5019755
:10325000F1F79CA78BA783E062E040E00E94B50CE9
:1032600076C183E060E041E00E94B50C80E090E52B
:10327000A3ECB7E48FA398A7A9A7BAA76FA178A5D5
:1032800089A59AA520E030E04AE753E40E941F0296
:10329000DC01CB018BA39CA3ADA3BEA36BA17CA13E
:1032A0008DA19EA120E030E040E85FE30E9425046C
:1032B00088232CF481E090E09AA389A33FC06BA1FE
:1032C0007CA18DA19EA120E03FEF4FE757E40E9433
:1032D000C50318164CF56FA178A589A59AA520E01D
:1032E00030E040E251E40E941F02DC01CB01BC014E
:1032F000CD010E944900DC01CB019AA389A30FC034
:1033000089E190E098A38F8F8F8D98A10197F1F7B5
:1033100098A38F8F89A19AA101979AA389A389A1C4
:103320009AA1009769F714C06BA17CA18DA19EA101
:103330000E944900DC01CB019AA389A389A19AA12B
:103340009E8F8D8F8D8D9E8D0197F1F79E8F8D8F26
:1033500083E060E040E00E94B50CF9C083E061E0EA
:1033600041E00E94B50C80E090E5A3ECB7E4898FC2
:103370009A8FAB8FBC8F698D7A8D8B8D9C8D20E061
:1033800030E04AE753E40E941F02DC01CB018D8B41
:103390009E8BAF8BB88F6D897E898F89988D20E049
:1033A00030E040E85FE30E94250488232CF481E0AC
:1033B00090E09C8B8B8B3FC06D897E898F89988D27
:1033C00020E03FEF4FE757E40E94C50318164CF585
:1033D000698D7A8D8B8D9C8D20E030E040E251E448
:1033E0000E941F02DC01CB01BC01CD010E944900FB
:1033F000DC01CB019C8B8B8B0FC089E190E09A8B19
:10340000898B89899A890197F1F79A8B898B8B89A6
:103410009C8901979C8B8B8B8B899C89009769F782
:1034200014C06D897E898F89988D0E944900DC01C6
:10343000CB019C8B8B8B8B899C89988B8F878F85FD
:1034400098890197F1F7988B8F8783E061E040E0DE
:103450000E94B50C7CC083E063E041E00E94B50CA3
:1034600080E090E5A3ECB7E48B879C87AD87BE87AF
:103470006B857C858D859E8520E030E04AE753E4AE
:103480000E941F02DC01CB018F839887A987BA872E
:103490006F81788589859A8520E030E040E85FE398
:1034A0000E94250488232CF481E090E09E838D8384
:1034B0003FC06F81788589859A8520E03FEF4FE78F
:1034C00057E40E94C50318164CF56B857C858D85E5
:1034D0009E8520E030E040E251E40E941F02DC01C2
:1034E000CB01BC01CD010E944900DC01CB019E83D0
:1034F0008D830FC089E190E09C838B838B819C81BD
:103500000197F1F79C838B838D819E8101979E8328
:103510008D838D819E81009769F714C06F817885B6
:1035200089859A850E944900DC01CB019E838D83A9
:103530008D819E819A83898389819A810197F1F790
:103540009A83898383E063E040E00E94B50CEB96A8
:103550000FB6F894DEBF0FBECDBFCF91DF910895B7
:10356000DF93CF93CDB7DEB72E970FB6F894DEBFBB
:103570000FBECDBF82E064E041E00E94AB0B82E071
:1035800065E041E00E94AB0B82E066E041E00E9412
:10359000AB0B82E067E041E00E94AB0B84E067E0A8
:1035A00041E00E94AB0B84E066E041E00E94AB0B7F
:1035B00080E090E4ACE1B6E48B879C87AD87BE8762
:1035C0006B857C858D859E8520E030E04AE753E45D
:1035D0000E941F02DC01CB018F839887A987BA87DD
:1035E0006F81788589859A8520E030E040E85FE347
:1035F0000E94250488232CF481E090E09E838D8333
:103600003FC06F81788589859A8520E03FEF4FE73D
:1036100057E40E94C50318164CF56B857C858D8593
:103620009E8520E030E040E251E40E941F02DC0170
:10363000CB01BC01CD010E944900DC01CB019E837E
:103640008D830FC089E190E09C838B838B819C816B
:103650000197F1F79C838B838D819E8101979E83D7
:103660008D838D819E81009769F714C06F81788565
:1036700089859A850E944900DC01CB019E838D8358
:103680008D819E819A83898389819A810197F1F73F
:103690009A83898383E30E94771D82E30E94771DCA
:1036A00088E20E94771D8CE00E94771D82E00E94D4
:1036B000771D81E00E94771D2E960FB6F894DEBF2D
:1036C0000FBECDBFCF91DF910895DF93CF93CDB7DC
:1036D000DEB7E9970FB6F894DEBF0FBECDBF89AF56
:1036E00084E066E041E00E94B50CA8E3B0E089AD5B
:1036F000982F907FE8E3F0E080818F70892B8C9386
:1037000084E067E041E00E94B50C80E090E0A0E832
:10371000BFE38DAB9EABAFABB8AF6DA97EA98FA950
:1037200098AD20E030E04AE753E40E941F02DC013C
:10373000CB0189AB9AABABABBCAB69A97AA98BA91E
:103740009CA920E030E040E85FE30E942504882344
:103750002CF481E090E098AB8FA73FC069A97AA9CB
:103760008BA99CA920E03FEF4FE757E40E94C503D7
:1037700018164CF56DA97EA98FA998AD20E030E010
:1037800040E251E40E941F02DC01CB01BC01CD01EB
:103790000E944900DC01CB0198AB8FA70FC089E1E3
:1037A00090E09EA78DA78DA59EA50197F1F79EA7F6
:1037B0008DA78FA598A9019798AB8FA78FA598A9DA
:1037C000009769F714C069A97AA98BA99CA90E94DE
:1037D0004900DC01CB0198AB8FA78FA598A99CA7C6
:1037E0008BA78BA59CA50197F1F79CA78BA784E0DD
:1037F00067E040E00E94B50C80E090E0A0E8BFE305
:103800008FA398A7A9A7BAA76FA178A589A59AA5FC
:1038100020E030E04AE753E40E941F02DC01CB01C4
:103820008BA39CA3ADA3BEA36BA17CA18DA19EA1E4
:1038300020E030E040E85FE30E94250488232CF478
:1038400081E090E09AA389A33FC06BA17CA18DA1E8
:103850009EA120E03FEF4FE757E40E94C5031816F2
:103860004CF56FA178A589A59AA520E030E040E24B
:1038700051E40E941F02DC01CB01BC01CD010E947A
:103880004900DC01CB019AA389A30FC089E190E034
:1038900098A38F8F8F8D98A10197F1F798A38F8FA1
:1038A00089A19AA101979AA389A389A19AA10097B6
:1038B00069F714C06BA17CA18DA19EA10E94490053
:1038C000DC01CB019AA389A389A19AA19E8F8D8F38
:1038D0008D8D9E8D0197F1F79E8F8D8FA8E3B0E0BF
:1038E00089AD882F90E082959295907F9827807F70
:1038F0009827982FE8E3F0E080818F70892B8C93D4
:1039000084E067E041E00E94B50C80E090E0A0E830
:10391000BFE3898F9A8FAB8FBC8F698D7A8D8B8D2A
:103920009C8D20E030E04AE753E40E941F02DC0156
:10393000CB018D8B9E8BAF8BB88F6D897E898F89E4
:10394000988D20E030E040E85FE30E942504882362
:103950002CF481E090E09C8B8B8B3FC06D897E893D
:103960008F89988D20E03FEF4FE757E40E94C50311
:1039700018164CF5698D7A8D8B8D9C8D20E030E08A
:1039800040E251E40E941F02DC01CB01BC01CD01E9
:103990000E944900DC01CB019C8B8B8B0FC089E11D
:1039A00090E09A8B898B89899A890197F1F79A8B94
:1039B000898B8B899C8901979C8B8B8B8B899C89AC
:1039C000009769F714C06D897E898F89988D0E9450
:1039D0004900DC01CB019C8B8B8B8B899C89988B5C
:1039E0008F878F8598890197F1F7988B8F8784E06F
:1039F00067E040E00E94B50C80E090E0A0EAB0E40F
:103A00008B879C87AD87BE876B857C858D859E85E2
:103A100020E030E04AE753E40E941F02DC01CB01C2
:103A20008F839887A987BA876F81788589859A85DA
:103A300020E030E040E85FE30E94250488232CF476
:103A400081E090E09E838D833FC06F81788589857A
:103A50009A8520E03FEF4FE757E40E94C503181610
:103A60004CF56B857C858D859E8520E030E040E2BD
:103A700051E40E941F02DC01CB01BC01CD010E9478
:103A80004900DC01CB019E838D830FC089E190E06A
:103A90009C838B838B819C810197F1F79C838B8323
:103AA0008D819E8101979E838D838D819E8100975C
:103AB00069F714C06F81788589859A850E944900CD
:103AC000DC01CB019E838D838D819E819A838983C6
:103AD00089819A810197F1F79A838983E9960FB6D4
:103AE000F894DEBF0FBECDBFCF91DF910895DF9375
:103AF000CF93CDB7DEB7E9970FB6F894DEBF0FBE10
:103B0000CDBF89AF84E066E040E00E94B50CA8E339
:103B1000B0E089AD982F907FE8E3F0E080818F706E
:103B2000892B8C9384E067E041E00E94B50C80E033
:103B300090E0A0E8BFE38DAB9EABAFABB8AF6DA993
:103B40007EA98FA998AD20E030E04AE753E40E94B7
:103B50001F02DC01CB0189AB9AABABABBCAB69A953
:103B60007AA98BA99CA920E030E040E85FE30E949D
:103B7000250488232CF481E090E098AB8FA73FC008
:103B800069A97AA98BA99CA920E03FEF4FE757E4E8
:103B90000E94C50318164CF56DA97EA98FA998AD92
:103BA00020E030E040E251E40E941F02DC01CB0142
:103BB000BC01CD010E944900DC01CB0198AB8FA76D
:103BC0000FC089E190E09EA78DA78DA59EA50197C6
:103BD000F1F79EA78DA78FA598A9019798AB8FA7FE
:103BE0008FA598A9009769F714C069A97AA98BA92C
:103BF0009CA90E944900DC01CB0198AB8FA78FA53F
:103C000098A99CA78BA78BA59CA50197F1F79CA7CA
:103C10008BA784E067E040E00E94B50C80E090E074
:103C2000A0E8BFE38FA398A7A9A7BAA76FA178A51B
:103C300089A59AA520E030E04AE753E40E941F02DC
:103C4000DC01CB018BA39CA3ADA3BEA36BA17CA184
:103C50008DA19EA120E030E040E85FE30E942504B2
:103C600088232CF481E090E09AA389A33FC06BA144
:103C70007CA18DA19EA120E03FEF4FE757E40E9479
:103C8000C50318164CF56FA178A589A59AA520E063
:103C900030E040E251E40E941F02DC01CB01BC0194
:103CA000CD010E944900DC01CB019AA389A30FC07A
:103CB00089E190E098A38F8F8F8D98A10197F1F7FC
:103CC00098A38F8F89A19AA101979AA389A389A10B
:103CD0009AA1009769F714C06BA17CA18DA19EA148
:103CE0000E944900DC01CB019AA389A389A19AA172
:103CF0009E8F8D8F8D8D9E8D0197F1F79E8F8D8F6D
:103D0000A8E3B0E089AD882F90E082959295907FEE
:103D10009827807F9827982FE8E3F0E080818F70C4
:103D2000892B8C9384E067E041E00E94B50C80E031
:103D300090E0A0E8BFE3898F9A8FAB8FBC8F698D2D
:103D40007A8D8B8D9C8D20E030E04AE753E40E9411
:103D50001F02DC01CB018D8B9E8BAF8BB88F6D89E1
:103D60007E898F89988D20E030E040E85FE30E94F3
:103D7000250488232CF481E090E09C8B8B8B3FC042
:103D80006D897E898F89988D20E03FEF4FE757E45A
:103D90000E94C50318164CF5698D7A8D8B8D9C8D0C
:103DA00020E030E040E251E40E941F02DC01CB0140
:103DB000BC01CD010E944900DC01CB019C8B8B8BA7
:103DC0000FC089E190E09A8B898B89899A89019744
:103DD000F1F79A8B898B8B899C8901979C8B8B8BB4
:103DE0008B899C89009769F714C06D897E898F89BA
:103DF000988D0E944900DC01CB019C8B8B8B8B89B9
:103E00009C89988B8F878F8598890197F1F7988B7C
:103E10008F8784E067E040E00E94B50C80E090E08E
:103E2000A0EAB0E48B879C87AD87BE876B857C85D5
:103E30008D859E8520E030E04AE753E40E941F0212
:103E4000DC01CB018F839887A987BA876F8178853A
:103E500089859A8520E030E040E85FE30E942504F0
:103E600088232CF481E090E09E838D833FC06F8196
:103E7000788589859A8520E03FEF4FE757E40E94D7
:103E8000C50318164CF56B857C858D859E8520E0D5
:103E900030E040E251E40E941F02DC01CB01BC0192
:103EA000CD010E944900DC01CB019E838D830FC0B0
:103EB00089E190E09C838B838B819C810197F1F752
:103EC0009C838B838D819E8101979E838D838D81C1
:103ED0009E81009769F714C06F81788589859A85DE
:103EE0000E944900DC01CB019E838D838D819E81E0
:103EF0009A83898389819A810197F1F79A838983CB
:103F0000E9960FB6F894DEBF0FBECDBFCF91DF911B
:103F10000895DF93CF9300D00F92CDB7DEB79B8388
:103F20008A8380E189830EC08981282F30E08A81CD
:103F30009B81FC01E20FF31F80810E94651B898138
:103F40008F5F89838981282F30E08A819B81FC01E2
:103F5000E20FF31F8081882339F70F900F900F90A5
:103F6000CF91DF9108950F931F93DF93CF93CDB738
:103F7000DEB761970FB6F894DEBF0FBECDBF6E8778
:103F80007F87888B998B8CE0FE013296DF01982F1A
:103F90001D929A95E9F719828E859F85A889B9891E
:103FA000BB230CF042C08DE20E94651B8E859F856D
:103FB000A889B989B095A095909581959F4FAF4FED
:103FC000BF4F8E879F87A88BB98B2FC08981082F01
:103FD000112707FD10958E859F85A889B9892AE04C
:103FE00030E040E050E0BC01CD010E94E022DC0165
:103FF000CB01282FCE010296FC01E00FF11F208398
:104000008E859F85A889B9892AE030E040E050E09C
:10401000BC01CD010E94E022DA01C9018E879F8791
:10402000A88BB98B89818F5F89838E859F85A889AD
:10403000B9890097A105B10549F689818150898325
:104040008981282F332727FD3095CE010296FC0168
:10405000E20FF31F8081805D0E94651B8981815082
:1040600089838981882364F761960FB6F894DEBF4F
:104070000FBECDBFCF91DF911F910F910895DF93B8
:10408000CF9300D000D0CDB7DEB78B836C838B810C
:104090008230A8F48C81803190F480E8898380ECB0
:1040A0008A838B81282F30E0CE010196FC01E20F3C
:1040B000F31F90818C81890F0E94771D04C080E6D8
:1040C00090E00E94891F0F900F900F900F90CF915A
:1040D000DF910895DF93CF93CDB7DEB729970FB661
:1040E000F894DEBF0FBECDBF89836A834B838EE613
:1040F00090E00E94891F198689818A3010F021E0A2
:10410000298718868A818A3010F031E038878985BE
:104110009885892B282F30E03F832E831D821C82B7
:104120008B818A3020F081E090E09D838C838E81AA
:104130009F812C813D81822B932B0097D1F180E0D0
:1041400067E00E943F2084E790E00E94891F81E0A1
:1041500067E00E943F208981882F90E0A0E0B0E0D6
:10416000BC01CD010E94B31F89818A3018F480E21E
:104170000E94651B8AE30E94651B8A81882F90E05C
:10418000A0E0B0E0BC01CD010E94B31F8A818A305B
:1041900018F480E20E94651B8AE30E94651B8B81F4
:1041A000882F90E0A0E0B0E0BC01CD010E94B31FD9
:1041B0002DC080E067E00E943F208CE790E00E94E5
:1041C000891F81E067E00E943F208981882F90E06D
:1041D000A0E0B0E0BC01CD010E94B31F8AE30E94C1
:1041E000651B8A81882F90E0A0E0B0E0BC01CD0182
:1041F0000E94B31F8AE30E94651B8B81882F90E089
:10420000A0E0B0E0BC01CD010E94B31F29960FB61B
:10421000F894DEBF0FBECDBFCF91DF910895DF933D
:10422000CF93CDB7DEB781E00E94771DCF91DF91AC
:104230000895DF93CF93CDB7DEB782E060E041E031
:104240000E94AB0B82E061E041E00E94AB0B82E098
:1042500062E041E00E94AB0B82E063E041E00E943B
:10426000AB0B84E062E040E00E94AB0B84E063E0D3
:1042700040E00E94AB0B84E064E040E00E94AB0BA6
:1042800084E065E040E00E94AB0B82E060E041E04A
:104290000E94B50C82E061E041E00E94B50C82E032
:1042A00062E041E00E94B50C82E063E041E00E94E0
:1042B000B50CCF91DF910895DF93CF93CDB7DEB7E3
:1042C000A6970FB6F894DEBF0FBECDBFCE014296C3
:1042D0009BA38AA3EAE8F1E0FDA3ECA3F0E1FEA32F
:1042E000ECA1FDA100808CA19DA101969DA38CA3B2
:1042F000EAA1FBA100828AA19BA101969BA38AA3AC
:104300009EA191509EA3EEA1EE2351F7198A188A1F
:1043100081E08F87188AADC082E0688940E00E9402
:10432000B50C82E0898B99C084E069890E943D0EBA
:10433000882309F08FC080E090E0A0EFB2E48B8783
:104340009C87AD87BE876B857C858D859E8520E0AB
:1043500030E04AE753E40E941F02DC01CB018F8367
:104360009887A987BA876F81788589859A8520E0A3
:1043700030E040E85FE30E94250488232CF481E0CC
:1043800090E09E838D833FC06F81788589859A8573
:1043900020E03FEF4FE757E40E94C50318164CF5A5
:1043A0006B857C858D859E8520E030E040E251E480
:1043B0000E941F02DC01CB01BC01CD010E9449001B
:1043C000DC01CB019E838D830FC089E190E09C834B
:1043D0008B838B819C810197F1F79C838B838D81EB
:1043E0009E8101979E838D838D819E81009769F7C1
:1043F00014C06F81788589859A850E944900DC0107
:10440000CB019E838D838D819E819A83898389814F
:104410009A810197F1F79A83898384E069890E94E0
:104420003D0E8823B9F48889282F30E08989882FA8
:1044300090E0AC0142505040220F331F220F331F37
:10444000CE010196820F931F840F951FFC01719678
:1044500080818F8789898F5F898B8989863008F46D
:1044600063CF82E0688941E00E94B50C88898F5F44
:10447000888B8889843008F44FCF8F85A6960FB635
:10448000F894DEBF0FBECDBFCF91DF910895DF93CB
:10449000CF93CDB7DEB783E065E041E00E94AB0B80
:1044A000CF91DF910895DF93CF93CDB7DEB783E04F
:1044B00065E041E00E94B50CCF91DF910895DF9354
:1044C000CF93CDB7DEB783E065E040E00E94B50C46
:1044D000CF91DF910895DF93CF930F92CDB7DEB7E1
:1044E0000E94D20A82E00E947A1782E00E94100B9A
:1044F00089838981853019F482E00E94BE17FFCF3D
:10450000629FD001739FF001829FE00DF11D649FB7
:10451000E00DF11D929FF00D839FF00D749FF00D43
:10452000659FF00D9927729FB00DE11DF91F639FE4
:10453000B00DE11DF91FBD01CF0111240895991B94
:1045400079E004C0991F961708F0961B881F7A958A
:10455000C9F78095089597FB092E07260AD077FDA5
:1045600004D049D006D000201AF4709561957F4F91
:104570000895F6F7909581959F4F0895A1E21A2E20
:10458000AA1BBB1BFD010DC0AA1FBB1FEE1FFF1FF7
:10459000A217B307E407F50720F0A21BB30BE40B47
:1045A000F50B661F771F881F991F1A9469F760958E
:1045B0007095809590959B01AC01BD01CF01089548
:1045C00097FB092E05260ED057FD04D0D7DF0AD061
:1045D000001C38F450954095309521953F4F4F4F32
:1045E0005F4F0895F6F790958095709561957F4F90
:1045F0008F4F9F4F0895AA1BBB1B51E107C0AA1FF5
:10460000BB1FA617B70710F0A61BB70B881F991F73
:104610005A95A9F780959095BC01CD0108952F92E8
:104620003F924F925F926F927F928F929F92AF9242
:10463000BF92CF92DF92EF92FF920F931F93CF938F
:10464000DF93CDB7DEB7CA1BDB0B0FB6F894DEBF26
:104650000FBECDBF09942A88398848885F846E844C
:104660007D848C849B84AA84B984C884DF80EE8096
:10467000FD800C811B81AA81B981CE0FD11D0FB69F
:10468000F894DEBF0FBECDBFED010895F894FFCFC3
:1046900077726F6E6720696E707574212100436CAC
:1046A0006F636B0048203A4D203A5300483A4D3A28
:1046B000530000000000000000000001020203039C
:1046C00003030404040404040404050505050505A6
:1046D0000505050505050505050506060606060684
:1046E000060606060606060606060606060606066A
:1046F0000606060606060606060607070707070754
:104700000707070707070707070707070707070739
:104710000707070707070707070707070707070729
:104720000707070707070707070707070707070719
:104730000707070707070707070708080808080803
:1047400008080808080808080808080808080808E9
:1047500008080808080808080808080808080808D9
:1047600008080808080808080808080808080808C9
:1047700008080808080808080808080808080808B9
:1047800008080808080808080808080808080808A9
:104790000808080808080808080808080808080899
:1047A0000808080808080808080808080808080889
:1047B0000808080808080808080831323341343569
:0A47C0003642373839432A302344CB
:00000001FF
